:100000000C9455110C9472110C9472110C94721181
:100010000C9472110C9472110C9472110C94721154
:100020000C9472110C9472110C9472110C94E212D3
:100030000C9472110C9472110C94C8120C947211DD
:100040000C947E120C9472110C9472110C94721117
:100050000C9472110C9472110C9472110C94721114
:100060000C9472110C9472110000000024002700FF
:100070002A0000000000250028002B0004040404CE
:100080000404040402020202020203030303030342
:10009000010204081020408001020408102001021F
:1000A00004081020000000080002010000030407FB
:1000B0000000000000000000808080807B8451628E
:1000C0008663847CC88091A47097D379AEAB78980E
:1000D000745C816D44275B8F646A7A4A908275777D
:1000E0007C9D7AC189B19CC5414BA84C75A5657DA5
:1000F000A3928AA261632DAA7AABD7617A60978AAC
:10010000826E685EC08A3853855B775CBFB9CE72F9
:100110007F7AB597698811778FDBB6A48C7A549B68
:10012000638DCC6B99736A8398825D9C87ACB17F39
:10013000687B4A6584A45C468E81B56F5571878F54
:1001400085688E739B858CDB5260988ECC92579815
:10015000443F5D6CC03456842F9A75809E5D7865EF
:10016000A3843CAF907273255E56948A7EB1903919
:10017000918F8C76748A88B54B74A5436D745495B1
:100180006FAB82789B75769556925B56946B6CAE8E
:1001900096614C805974A69C865A9E347F873F7E18
:1001A0007AB6A59F64524992818AB24798737F714B
:1001B0006C93703D7763C1D5A360416071874F74C4
:1001C00069439B82836B67606AAE80A78F7343AC81
:1001D000766EAA5ABD7B64B78C95863273969EA7BD
:1001E0003896A85FB39BAD6150BA99738D83423D39
:1001F000759E757B837B79D5B58992857A7C82C122
:100200008F395E67A75474C4397F85639D9CA29B18
:10021000788ED788B75EB19647995B9B604D87A370
:1002200096717A588EB1B962708D7F9A93BB834C68
:100230004C479CA1718650AA9FAE9B4DCE7D6AAD66
:10024000AAD7772E8A65629931939983CC9AA16F48
:100250007AAD7C8BB45E5799557888A4A679A6B4FC
:10026000CDA35359745097AF74877F53927C798C88
:1002700088B37EAF7C4E814A68B8AA9E897998B7C8
:10028000717D6C836C7AB5B39C574B57C5BE71C6F4
:100290006574B98BA66D646E35BBBC7FA52A936966
:1002A00065D0B46A6A4293AB9A8D576E7F90A895D9
:1002B000A7885C9B90A28D8F7E3E638C9E90276C5E
:1002C000A296A963A0883884899F7B4066728C932C
:1002D0006F8C985F906BB5AB43575193AB927CAEEC
:1002E00056669AA9726272477FA07A795D47808AC2
:1002F0009AB6617473968F74B15334786A87906537
:100300006F60678FA2B09247716FA0A15B585A636C
:1003100092A0A264548081A3856C9E757C608C99A8
:1003200043686983BA71837070826E968667618450
:10033000959E5269637DA48EA06772535964858A25
:10034000737A687AA18D70804D727FB18F7459373E
:100350006885998A718C7A749886575739A1908EDE
:100360009A67845B69AF939F7B5B786198786254EE
:100370004A7083A9A37169767792837C975A6366E2
:10038000B98440867D749C76808F777977905C5FA6
:10039000A768819C58956E79915CAE7871865BA355
:1003A0007456AC5F629C8E915964905E9F8276AD6C
:1003B000677A789685776F539A7F9C7D835C60948B
:1003C0008FA57E6A5AB1898891536F6276A196870C
:1003D000706E768596AA8783756788938A775D5B4A
:1003E0008784ABAD60656B97BF958C6756986B75CE
:1003F000955E85616EC98490794E957793AD6592CF
:100400006264B27A9D7E7797649784827550737820
:10041000839B875F819A8E889E8C819269A1825985
:10042000886A9270799276928F77B38255967B899B
:100430008D5E8788929268976C5B9E6C9C87519EBC
:1004400085798874B1938099819D7D6B876C667680
:10045000918773835C978CA0968CA1718293877827
:100460005E5197925EAA81877C769F8E8488738383
:100470007E708988708C7199A8999D747D7E747D39
:100480008E746E51798A91937B8E9393A68986653B
:10049000746D98867D826D7E80948E77A27F7A952A
:1004A00081897F6B71828D938E977666837B838A39
:1004B0007675827985997E86919189927D7F768104
:1004C000786C8468938E7F89796C95878999638C21
:1004D000748C93718588739A6C96A1528E708391F7
:1004E0006D957472867FA081778F75858E8B9666E9
:1004F0006D73809674907C7495739F95777E5694F7
:100500009B779373797B56A98C6F7F5A9C8C8B90C9
:100510006E81776E99908B7F707B83837A787B6E08
:10052000749A829A7C71928883878477716E7884BA
:100530007D84707C8189A0837E83778894887C6A9F
:1005400076807F76807A7B737596908C7F7A777FC2
:100550008C777A8381938F6A827D7985717C797CAF
:10056000828098748086788A8381837E6E72788494
:100570007B8B71819C778E7E747D6F927E7C8A5F8F
:100580008773759E82798B7A8D817D78696E797497
:1005900099808B6868A0799E87777A697E877D7A53
:1005A000776A7F72948A8090618487979F7D775D58
:1005B0006497808C7B637E727E9E72826D6C8E955A
:1005C000908874786E808C759683707E6C867D6E54
:1005D0007D70839B758E856B786F917B8596718519
:1005E00081717C726D7F829080867A7F81747C7A43
:1005F0008E848692806C836493847490658C8076FC
:100600008869847C848B84878879776E8971838FED
:100610006D8A73718B7B8871799774948676826DFD
:10062000898B6696787991798A7D778078857D84C3
:100630007C7592727E8B6F8D7B787C818A718482CF
:100640006884927F88796E96888170757C75877FC3
:1006500085807084808392758D737D8189838B7989
:100660007E6D89897E8C6C7980708880737C8082B5
:100670008C8D88797C7586877A8679787E847C777C
:100680007C80738F7B89857886857D847988809B43
:100690007774737579867F7E7C817C808486878081
:1006A0007F86808C88767F7377827B9584717F7854
:1006B0008F7E83896F7F8B818F827F7A757F8E7F1C
:1006C00085667E88767B807987788E898A8E717A36
:1006D0008D7D807A7A877E7D7D818374828283841A
:1006E0008083847C7F8C83837183828F8678837DF3
:1006F00078887C8B81708482819375857A78927BEF
:100700008D82718E768789778773788A7A907B88D5
:100710008A6B8B798E89747F797D868B837E7D7FD2
:100720008281807D8E7181897D7F83818A838483AC
:10073000837E818083747A7E8289787D84898485B2
:10074000848289767F87817E7A7F84897C8881888C
:100750007A827E7B8B7C7A807D8085857D82817D9F
:100760008B8081827187758F8A77887F7B8D7C866D
:100770007F7C857484897A8A717A8B7B8D8282846E
:1007800073847A838775837F7F8B83807D797B8178
:100790008B7B7D817E82807F867C80827F89817E4B
:1007A000807983817D877B7F86788C7A8884778542
:1007B0007E7A887A867E7782817D877B837E7E853E
:1007C0007C85817E817F8383817A817E7B867D802B
:1007D0007F7D8779837F80857E80827F8880798610
:1007E0007C81818279827E7C8382798781827D830C
:1007F00080817D7C7C7F797F897C7F837B857B8307
:100800008080878180827E84797D867F81847C81DF
:100810007978817A857F7B847E88827B8976847FE4
:100820007F867D808279837A7D80837D7D83847DD0
:10083000817C83897A847C847E76867B7F817782C3
:10084000847C847C7D827A8A8383837B81847982A1
:100850007D7C847C85827A817B7D7E7E847F8084A2
:100860007E817F807E83837E7F7F81807D77818292
:1008700081827F83807D847D827D7E84817E7E7B7C
:10088000817C807D8385807C857E7A7C7A85857F6E
:100890007F7F897E7F817D847F837F7E7E797F805D
:1008A0007C807E84897C7E817D837F7C867E7D8149
:1008B0007C847B7D807D84817F897C80827A7F813E
:1008C0007D8680827C7F81817C817B818182827E2A
:1008D0007F7C80857E857D857F7C8179817F7A851F
:1008E000837D827C81838082807F837D807B7E8408
:1008F0007D83857D877C817E7B7F817F827F827EF9
:100900007E827F817E81827E817F7F7E7D82807DEF
:10091000858082817D837D7D8680807F7E807F80D3
:100920007E807F8182807E7F817B81817D867D82CA
:1009300080808181817D81837E7E7F7F7D817D80BE
:1009400082827F81847F847F7F83807E7D81837E9E
:100950007D817C857F7E887D817F7F858081817D93
:10096000877D7C837F808079858080857D817D8087
:10097000827F857F81827F827F7E7F7D8080818371
:100980007E807F82818082817D837E82827E827D65
:1009900081857B83807F7F7C7F847E82807E857D56
:1009A00080847F817C81827F827E807E7F81807F48
:1009B0008182837F81807F8180817F81817E84802D
:1009C000807E808381807E81827E7E7F8182818124
:1009D000807F7F8080847F7D7F8081807F7F828019
:1009E00082807E82807E837F837F7F837F80808002
:1009F00082808080807F7F7E827F808280837E80F5
:100A0000828081807F827F80808080807E808280E3
:100A10008080827F7F8181807E818082807F807FD5
:100A20007F817F807E80827F808080817F828180C5
:100A3000827F7F8080808080817F7F8180808080B6
:100A4000807F818180808080808080818180807FA4
:100A500081807F807F818080808080808081807F96
:100A6000808080817F80807F8080808081817F8086
:100A7000808080807F808080818080808080808175
:100A8000807F808080808080808080808080808067
:100A9000808080807F808080808080808080808057
:100AA0008080808080808080808080808080808046
:100AB0008080808080808080808080808080808036
:100AC0008080808080808080847B91806096426E70
:100AD000DE51876463904DBD6D5CC44B99D7513630
:100AE000BA959A5C83AD9248886D2F85C8556BE89E
:100AF000B3577378A3DF51D095A39D82B1AA8B948D
:100B000096AF977EB4825887312AD4A02A67607244
:100B1000D587658D215E8C1E1755BC5F88706D8BE7
:100B2000434FAC4F2F8ACB5269697EB462645281C5
:100B30007F6997697BA76FCC909B67C4653E7338CC
:100B40006C68697C966FB0AAB09D729EB9C36F76CF
:100B5000A18D88578C667C6D97484A7D9365547B40
:100B60006F91605B6F9373928A5C876B8281717304
:100B7000ACBA5B7A957B978F7291A1AD52A77194B5
:100B800096968D59A1A08959838D6E807466899C33
:100B90009568756A788D5D636E7E7F5F8096B1859E
:100BA0007598708D7B8A7F6B979F9D848582899BCA
:100BB0006A72B485736D7F707F847567898C7D7769
:100BC0006E78877382866B7E797480887D83979533
:100BD0006D89888581957884A0996B76946F826FF2
:100BE0007F887F737F709E7F86918B997D7E8C93AB
:100BF00076937A82967C6C7E97807C8C7C938377CC
:100C00007E73907D6F8F8B718C8E6D848F6C7874FA
:100C1000967B81887F8F7899886B90857C7C818D8D
:100C2000728D717D7E7A817D8E7D8792896F7680CF
:100C30008C787C7C77847A857D757C7D7D7E7D8BD0
:100C40007D7F94798089797F8091887A808B877A7B
:100C5000868B8078818986827F888683808C7D7967
:100C600084828585788D807E93877E888883788B43
:100C70008583897776838C787D8186817C80807A74
:100C8000807F817A827F86877B837F7F818386775F
:100C9000848686877E88857C7D82897E79867C7C39
:100CA000857E857F8180808080807F81868182872C
:100CB000828D80778A887D76857D96838A879075F8
:100CC000AA787796789C6F65918566798785522595
:100CD0002F2F1C272329282C2A2F2E323137363B41
:100CE00039413E55628293A6D7C8E4F8F2EDF6E8A2
:100CF000E6F3ECEDE9E9E1E7E1E4DBDFC9AFD19F41
:100D000086A06282603E454B5E2030222F21334513
:100D10002C353E3D383345424B544F47475E574193
:100D2000594B4A444446496250766C8B7476B8817C
:100D3000BCE1BEDAF3EDFEE8ECFDF6F7F4F2EFF01D
:100D4000EDECE9E8E6E4E2E0DFDDDBD9D7D5D3D1AD
:100D5000D0CDCBC9C6C4C2BA9C9E8B9B5A3E3F43E2
:100D60003E1A3E1E3718030E0A12121F1517171DC2
:100D70001F1E203023252A2C292E2E383F5E765424
:100D800058785C787887BABD92CEDEB6C5A1ADDD65
:100D9000DFD7DEE7D8E1E2E1DDD1DBD5D9D8D6D6A1
:100DA000CED1C7C1D1C9CBBFC5C5C0BEC0B1BDB111
:100DB000B3B1B49CA3B5A4927B9C736B9B83636B10
:100DC000385B3E72473656013D664E4621442F2120
:100DD00044151A234C3C1F0F205C63343D26383EDB
:100DE000574E122A70510E1B3B521629164E2E3AA0
:100DF000403E602A42585D2B3F5C567D9D6E419F70
:100E00008B6DA26A7FB7E0B1ADA9D8AAB4D3BDC536
:100E1000C6D7D4D8DADACDD6CFD3D2D4CDCBCECCB8
:100E2000CBC3C9ACC1C7C1C2BDB9BEADADB2A7A22B
:100E30009FB3A1A08577907B4D3250583E3B4251E5
:100E40002E201D43131530071C1F044522010F09D6
:100E50000C0D16191C38172045201A1D212123338B
:100E600039384356313C6C3773583A4E76484F8A7E
:100E7000AA6B6884487495A07CBD8992C18DC67F99
:100E800070BC97BCA6A0AFB5DAB2D7B2E0AFB6B629
:100E90009AB9CED792BF9DD19DAFBD93BFB6DCAB03
:100EA000A8BACCA5B1C481BEA864C39982B05D972D
:100EB0007F865099A071A38379684D654D4F675027
:100EC0004478732D539F564A643969635C3C3A50A9
:100ED000984A3A36515A3E595A4E45654B4D6444EC
:100EE0004C7773394F6C4C494B4E525B6E51555198
:100EF000986354615D76757B6CA7656CA3749C8F59
:100F000062C39675B2699BC1B0D686BAACC3AEC790
:100F1000D0CBEBA1BEC0FEADDEDBD8E0DBC7DAF0A4
:100F2000C2E2E0D0D9C9DDDAD2DABCD3A0CECFB2EA
:100F3000C8AED39CAEACA8A6B59C817C95745799DD
:100F40006E7B657C4E4D476D52493D36476A7466EF
:100F500051447C2345584C396E39344A34445C7AC8
:100F60003C4B3D503E5C6B584C64603C868A595407
:100F7000797162789F64876B6FAD939E88867B9052
:100F800089927DA9B78DA7B992ACBCC38F8DA5AF4F
:100F9000BDC2B5CA9AA6D59EB89ACEC0C0CFC89CCD
:100FA00091A4CDC4B09B97D4C2BBC789D29B87BA4A
:100FB000888CB8B89AC2AE809B96807987BB7CA09B
:100FC0009B6AB07D63866572628E81549861756597
:100FD0005B9E7F57797C4A675559A1853A6A687E3E
:100FE0004F58605981697F77646F52436B886F5D9A
:100FF00061708350A6825D8E366E945F5F6E5C8BEF
:10100000766C86507B9D72598AAD7E6485959491ED
:101010007B888F9FA4A49D97A7AFAEA8B4AFB594CB
:10102000AD9BB4AABBAFAFB28BD0C3C7B2A5BFBF95
:10103000A9A4C2BEAC91B7B8A1A8A8C39C7EC8831E
:1010400092BA69989C77808482737C8D778B778342
:10105000595D667C5F286F7063657048626C2B46D3
:10106000596E5068324A7A2A584B5264603E714633
:101070004B5C4A55705364545C6B62842F6F784D9F
:101080008E83727752877980645B6F868288798BD2
:10109000A37583989964A08289A77768A1B087B166
:1010A000919589A68583AC7CABA980AA8E7FA27816
:1010B0008DA6A27ABC8E73956B979EA9818E96A100
:1010C000AB7C718FAB708E5E91887C5A89976D80F6
:1010D0006498496C86844C7157625E81895B716A41
:1010E000647780497C58687355786F407B605756A9
:1010F0006C5D506F81606C7C545269565F706E5DA0
:1011000061836A7178835E429159626C628F426634
:10111000618B57727658806D749B75656173817AA7
:10112000AC8B7F966D87717AA3B07E946FA9918501
:101130008D71997D9497BE8EA39171B1A09298798B
:1011400080B89E94859C978C966B9493A09875A478
:1011500066768E83755B818F6F837465766E745C43
:1011600068756864634B505B6A845D5C6B425C517C
:10117000885D4B554E6B4A71694D6265456A5A4FA1
:10118000567C656966777C48716152757253825EE0
:101190005C6C7A836E86976272887F567D907586C6
:1011A0008E6782B0828F6182986B8B888684807F05
:1011B0009B7C88A27F779F7198957BA09B8A8DA648
:1011C0006B96927A86877C8C7E868E899A847C77D1
:1011D000A3917BA5628AA75C7A8C7694576D876809
:1011E0008572875F75617D7F718F5F69A27A6A837F
:1011F0004B8078697A7A6B527E885769708E566414
:1012000080687E77686084666974856A64657275D3
:101210008A92665FAB755B875B7C74607D84686D6A
:101220007C6E758A9D6D66878E78767C7C927B7DE0
:1012300084A67B917493938C8C949D82947C7D9CEA
:10124000A1A588809C77969BAA9390AE838E90846C
:101250008891AF988C7DA78B8CBB7A999C7C9D6F75
:101260007C857B8083947273788F927F6B7E8060A5
:1012700080838B63686E6E728F715572766A6C852F
:10128000715D7A886C84785B65748A5E726F846243
:1012900079885D747E895E717B7C7B6D77977969D7
:1012A0008D8C7D6971878D9A9C6B868A827A828EFD
:1012B000A5797A8E859B868C808E89A06E8C7A8E9D
:1012C000AE858F748C87878BA39788A0858E988432
:1012D00097818E9B79879A7C7B8A9C9DAA99898A23
:1012E0008C7A98AA8689747E7E9391967597757E7E
:1012F000936D8B756A8CA0778F736F916F7669A2EF
:10130000907286878A706C857879746F868B838DEE
:101310008476758083737B917E7A77689C7D817FEC
:101320007E717A777290838198697E7E7F858881CD
:1013300088877F8493877E837C7396997F7A8D9D3F
:1013400076A0938F8D79969E7C899B7E9B888F9CBF
:101350008C8BB1898B8C90A6868A848D988D97A270
:101360009F8490AB8B8D927D9C9B7B9E8084819A89
:10137000A278997F7494848975747882767E859D2D
:10138000836A828B6F717670946D787F72857581B8
:101390007475A9677974668777846D8373718179B1
:1013A000807F707D987A8B826A73898D738B8A6A4D
:1013B000927F768379A4797E8E7E8E7E7492AC7ACB
:1013C000757C968A74869A90849087838A93837CAE
:1013D000898E9495708B937E948D9977A38A7B8B5D
:1013E0008299938787907A879892788F898B8C8C53
:1013F000817E8891998676789B8F70827E937C908F
:10140000706F8F8777917C70926B847C7E876D85FF
:101410007D8074777B8D8F8A74767B78877E7A77F0
:101420007E7B9F7C816D847C7D83797D77787E9ABD
:101430006E7B86807F807071808D8074828E7482D6
:101440007F897D728190847E8A867B868184A56D6A
:101450007C86968D757A7891928884869583819121
:101460008981908A7FA49278917B9B928189859BC8
:1014700083837D8F988C7F7E8F8F7B857D86877E13
:101480008A86827D858A6E857D727A7E798A83706E
:101490006E878C68886E7B926A767C688C7A707EA8
:1014A00071826D6F86837A69767B70827F7D6687B5
:1014B0008C70777A8271757C7C8C84707B73857E6E
:1014C0007B85747E88829272768E847A8372877F1F
:1014D0007B837D877B8B8684867D897584818991DA
:1014E000887B8C8E74778488768D888987759193B4
:1014F0006F837B758A868D89817A938379819478CD
:10150000888374867480778580767A817A7B8484F8
:10151000767F7F7B7D7A84776E7B7C8E7D7179860A
:1015200073747177737A7F7C84808A747F84707C13
:10153000787C7E7478856C7581827F71807B727C0B
:101540008C79717D737B8279707D887E76727E78EE
:10155000828484767E8177817A807C828279878B8F
:101560007A7E79798C7D80758B8E72967C87867376
:10157000808A818181818D8E7D8A80847B7492892D
:101580008A8184877F777F76868981818E7C768247
:10159000817D7B77737A837F747B71797A7A7C83A0
:1015A0007D727E6D7D7E757B786B747D7B75737AC5
:1015B00080737B836E7C6D797E797B78787A79769F
:1015C0007376847671817B76767C85748380748370
:1015D000727B79798076837F7D86867C7C7C7A8637
:1015E0007983748281778F7D79818F777B7A828A04
:1015F0007779849175847F7981818377807B8D89E8
:1016000079837E7B7F7A7B8491828476848E737EDD
:101610007E8275878278797E8A7A7C75767D7F79FD
:101620007E7D7A7D767D7C77787E8380787572800A
:101630008078748287747A7F8777717A7E7F7E84E0
:1016400075768D707C7D737D7D80747E7C7D7E75EE
:10165000787B7676827E7D7C807D6D868A778475C8
:101660007D7E7A7980867A7A80867381807C7E7CA2
:101670007A8281817B848281838784807B827F7C64
:1016800089828380888A7D868B7E7E857A82837C30
:1016900085888389827F8A7E80807B7982837B892B
:1016A0007B7A83757E7C7F81757B8978797D737F7A
:1016B00080797A79747B8B737E78737F817D757A7C
:1016C0007974847679817581757B757A8081797773
:1016D000837F7C807A777E837D787C817C7A837D32
:1016E0007E7C84797F82738E7E82827A7F817E7D0A
:1016F0007C80838584857D837D7E877F847F847CD9
:101700007A83888581817F818680817B828D7C7EC2
:1017100081808280847D818B847F83897B7A8C80A9
:101720007E887980817C817C837F857A78877B7DC8
:101730007F817D7D797F7D7F857A7D7E7E807C7BCC
:101740008B767A827B7D7B84837F787F83797883B5
:10175000847D817E7B7D7C8578837C79827F84809B
:101760007D827B837B78827D847D867F7B81837F86
:101770007C7F817D827B848183837C868185817E61
:101780007F8B83817B88887E85827F81868682822B
:1017900087808483828685837F8688888785827F09
:1017A0008A8681858384857F818C7E7E867C848009
:1017B00081807A8184807E7C7D7E7D7E7E7F80803C
:1017C0007B817B7B8082817A7E807C7F837F7D7D35
:1017D0007F7C84807F837B7D83837B817D7C808411
:1017E0007E7E847F807F7D817C82837F847C7F80FE
:1017F0008083867E7D84867F7F81808580808283D2
:10180000848180848282828683837E8683808883AB
:10181000818480868581847F888383828783818594
:101820008585818385858584877F8582808287867B
:10183000818180857F858380827D83837D827F7F98
:101840007F7D7E847F817B7F837E7E7F827D85809E
:101850007D80887B7F817E837F7F7E817E857D8189
:10186000807D857E8080808083817F817D80808473
:1018700080838083817C8282837F80848183818254
:1018800082838281817F8284848282808485848035
:1018900083828284877F8582818582878384848214
:1018A00083848586828283868185858086848485FB
:1018B00080818685828285847E838084837F837E07
:1018C000847F80817F80817F7E7F7F817E7E7F7E1F
:1018D0007D808081807E7F807E80827E817E7F840D
:1018E0007E7D817C8082817F7E827F827F7F8181FD
:1018F0008181827F7F81847F83837E8481828182D4
:1019000081828182828282828183838280838481B8
:1019100082828480818484808082848182828182A8
:101920008481828180828484828283818381818395
:101930008382818283848181828381838381838284
:101940008084807F838181817F818182807E807F8E
:101950008381807F8081827F7F8282807F8180817E
:101960008080808382808081838081808281827F69
:101970007F81838080807F8181817F808182817F60
:1019800080828080827F828081818081818181824A
:101990007E81828081828180818282808182808238
:1019A00081818282828181848281848082847F8419
:1019B0008182848082828381828483828383818303
:1019C0008182838382818281828182818080808002
:1019D0008080807F80807F7E7F7F7F7F7E7F7F8013
:1019E0007F7E7F807F7E7E7E807E807E7F807E8009
:1019F0007F7F807F7F7F7E8080807F8080808080EF
:101A000080808080808080808080818081818080D3
:101A100080808181808081808181818180818080BE
:101A2000808180808180808080818080807F8081B3
:101A300080818080818081818081818080808080A0
:101A4000808080808080807F7F7F7F7F7F7F7F7F9F
:101A50007F7F7F7F7E7E7E7E7E7E7E7E7E7D7D7DA5
:101A60007D7C7C7C7C7B7B7977543D3B3536353780
:101A7000373A3A3C3D3E3F40414344454748494B55
:101A80004C4E4F515253555758595B5C5E606369D9
:101A9000738191A2B2BFCBD6DEE3E7E9E9E8E6E5E0
:101AA000E4E2E1E0DEDDDBDAD9D7D6D4D3D2D0CFA1
:101AB000CECCCBC9C8C7C6C4C3C2C0BFBEBDBCBAEA
:101AC000B9B8B6B5B4B2B1AEABA7A19A938A8279D0
:101AD0006F655B52494039332F2B28262523232459
:101AE0002627282A2B2D2E303133343637393A3BEE
:101AF0003D3E40414244454647494A4B4C4D4F507C
:101B000051525355565758595A5C5D5E5F60626337
:101B10006466686C70767C838A929BA3ACB4BCC309
:101B2000C9CFD5DADEE1E4E6E7E8E8E9E8E7E5E4AD
:101B3000E2E1DFDEDCDAD9D7D6D4D2D1CFCECCCB3E
:101B4000C9C8C6C5C3C2C1C0BEBDBBBAB9B7B6B5A8
:101B5000B4B2B1B0AFAEACABAAA9A8A7A6A4A3A2D9
:101B6000A1A09F9E9D9C9C9B9A99989796959494D2
:101B700093929190908F8E8D8D8C8B8A8A89888795
:101B80008684817F7C7875716D68635E5A554F4A93
:101B900046403B36312C2824201D1A1715131110EE
:101BA0000F0F0E0E0E0E0F0F0F101011121416172E
:101BB000191B1D1F2022242527292A2C2E2F3132C4
:101BC000343637383A3B3D3E404142444546484929
:101BD0004A4C4D4E4F51525354555758595A5B5CCD
:101BE0005E5F6061636465666768696A6C6D6E6F8D
:101BF00070717273747576777879797A7B7C7D7E73
:101C00007F808182828384858686878889898A8B82
:101C10008C8D8E8E9092969A9EA3A8ADB3B8BDC2BD
:101C2000C8CDD1D6DADEE2E6E9ECEEF0F2F3F4F577
:101C3000F6F6F6F6F5F5F4F3F1F0EEEDEBE9E7E69E
:101C4000E4E2E1DFDDDCDAD9D7D5D4D3D1CFCECC15
:101C5000CBC9C8C6C5C4C2C1C0BEBDBCBAB9B8B77D
:101C6000B6B4B3B2B1B0AEADACABAAA9A8A7A6A5A5
:101C7000A4A3A2A1A09F9E9D9C9B9A999998979698
:101C800095949493929190908F8E8D8C8C8B8A8A60
:101C900089888887868685858483838282818080FF
:101CA0007F7F7E7E7D7D7C7C7B7B7A7A797978787C
:101CB000777776767575757473737271706F6E6CF5
:101CC0006A686663615E5B5854514D4A46423E3ACB
:101CD00036322E2A26231F1C191613100E0B090844
:101CE00006050404030303030404040506070708A8
:101CF000090A0B0C0D0F1011131516181A1C1E1FB4
:101D000021232527282A2C2E3031333537383A3BEA
:101D10003D3E404143444647494B4C4E4F5152543F
:101D20005557585A5B5C5E5F6062636465676869BB
:101D30006B6C6D6E707172737475767778797A7B6F
:101D40007C7D7E7F80818282838485868787888967
:101D50008A8B8C8C8D8E8F8F909191929394949589
:101D600095969797989899999A9B9B9C9C9D9D9ED8
:101D70009E9F9FA0A0A1A1A2A2A2A3A3A4A4A5A547
:101D8000A6A6A7A8A9ADB1B6BBC0C5CACFD4D9DD98
:101D9000E1E5E9EDF0F3F5F8F9FBFCFDFDFDFDFDF6
:101DA000FDFCFCFBFAF8F7F5F3F1F0EEECEAE8E7FE
:101DB000E5E4E2E0DEDCDBD9D7D6D4D2D1CFCECC9D
:101DC000CBC9C8C6C5C3C2C0BFBDBCBBBAB8B7B615
:101DD000B5B3B2B1B0AEADACAAA9A8A7A6A5A4A34D
:101DE000A2A1A09F9E9D9C9B9A999897969594944A
:101DF000939291908F8F8E8D8C8C8B8A8989888716
:101E00008786868584848382828180807F7F7E7DB1
:101E10007D7C7C7B7B7A7A7A79797878777777762C
:101E20007675757474747373727271717170706F8A
:101E30006F6E6E6D6D6D6C6B6A69676563615F5D1A
:101E40005A5855524E4B4744403C3834302C292583
:101E5000221E1B1815120F0D0A08060504020201A6
:101E600001010101020203040405060708090A0C26
:101E70000D0E0F1112141517191B1D1F21232426D7
:101E8000282A2C2D2F31333536383A3C3D3F4042FD
:101E9000444647494A4C4E4F5152545657585A5B44
:101EA0005D5E60616264656668696A6B6D6E6F70C5
:101EB00072727475767778797A7B7C7D7E7F80818B
:101EC000828383848586878888898A8B8B8C8D8D95
:101ED0008E8F8F90919192939494959596979798D1
:101EE0009899999A9A9B9B9C9C9D9D9E9E9F9F9F33
:101EF000A0A0A1A1A2A2A3A3A3A4A4A4A5A5A5A6B2
:101F0000A6A6A6A7A7A8A8A9AAADB2B6BBC1C6CBCC
:101F1000CFD4D9DEE2E6E9EDF0F3F5F7F8FAFAFB13
:101F2000FBFBFBFAFAF9F8F7F5F4F2F0EFEDEBE969
:101F3000E7E6E4E2E1DFDDDBDAD8D6D4D3D1D0CEF8
:101F4000CCCBC9C8C6C5C3C1C0BFBDBCBAB9B8B681
:101F5000B5B4B2B1B0AFADACABAAA8A7A6A5A4A3C7
:101F6000A2A1A09F9E9C9C9B9A98989796959493CB
:101F70009291908F8E8E8D8C8B8A8A8988878786A6
:101F80008585848383828181807F7E7E7D7C7C7B4E
:101F90007B7A7A79797878777776767575747473D1
:101FA000737272717170706F6E6D6C6B6A69686656
:101FB00066646362615F5E5C5B5957565452504E73
:101FC0004C4A484644423F3D3B39373533312F2E4A
:101FD0002C2A282726242321201F1E1D1C1B1B1AE8
:101FE0001919191918181818191919191A1A1B1B5F
:101FF0001C1D1D1E1F202122232425262728292AB7
:102000002C2D2E2F31323334353638393A3B3C3E85
:102010003F40414344454648494A4B4D4E4F50523C
:102020005354555658595A5B5D5E5F6062626465F1
:10203000666768696A6C6D6E6F70717273747576BD
:102040007778797A7B7C7D7E7F7F808182838485AF
:10205000868788898A8B8C8D8E8F909192939495A8
:1020600096969798999A9B9C9D9E9FA0A1A2A3A4A7
:10207000A5A6A7A8A9AAABACADAEAFB0B1B2B3B498
:10208000B5B6B7B8B9BABBBCBDBEBFC0C1C1C2C38B
:10209000C4C4C5C6C6C7C7C7C8C8C9C9C9C9CACACA
:1020A000CACACACACACACACACAC9C9C9C9C9C8C899
:1020B000C8C7C7C7C6C6C5C5C4C4C3C3C2C1C1C0DB
:1020C000C0BFBEBEBDBCBBBBBAB9B9B8B7B6B6B56A
:1020D000B4B3B2B1B1B0AFAEADACABABAAA9A8A727
:1020E000A6A5A4A3A3A2A1A09F9E9D9C9B9A9998FC
:1020F000989796959493929291908F8E8D8C8C8BCD
:102100008A89888887868585848382828180807F8A
:102110007E7D7D7C7B7B7A7A79787877767675742C
:102120007473737272717170706F6F6E6E6D6D6CAF
:102130006C6C6B6B6A6A6A6969696868686767670B
:102140006666666665656565646464646463636346
:10215000636363636262626262626262626262625B
:102160006262626262626262626363636363636348
:102170006363646464646464656565656566666616
:10218000666767676768686868696969696A6A6ACB
:102190006A6B6B6B6C6C6C6D6D6D6D6E6E6E6F6F74
:1021A0006F70707071717172727273737373747413
:1021B00074757575767676767777777878787879B6
:1021C0007979797A7A7A7B7B7B7B7C7C7C7C7D7D60
:1021D0007D7D7D7E7E7E7E7E7F7F7F7F7F80808017
:1021E00080808081818181818182828282828282DB
:1021F00083838383838383838384848484848484A8
:102200008484848485858585858585858585858582
:102210008585858586868686868686868686868662
:10222000868686868686868686868686868686864E
:10223000868686868686868686868686868686863E
:102240008686868686868686868685858585858534
:10225000858585858585858585858585858585852E
:10226000858484848484848484848484848484842D
:10227000848484838383838383838383838383832B
:102280008383838383838282828282828282828228
:102290008282828282828282818181818181818126
:1022A0008181818181818181818011241FBECFEF55
:1022B000D8E0DEBFCDBF11E0A0E0B1E0E4ECFEE28B
:1022C00002C005900D92A430B107D9F722E0A4E036
:1022D000B1E001C01D92A234B207E1F70E940713DA
:1022E0000C9460170C94000090E0FC01EC55FF4F3B
:1022F0003491FC01E057FF4F2491FC01E458FF4F5B
:10230000E491EE2309F43BC0332339F1333091F0EB
:1023100038F43130A9F0323001F584B58F7D12C028
:10232000373091F03830A1F03430B9F4809180002A
:102330008F7D03C0809180008F77809380000DC0D7
:1023400084B58F7784BD09C08091B0008F7703C0BA
:102350008091B0008F7D8093B000F0E0EE0FFF1F02
:10236000EE58FF4FA591B4918FB7F894EC9161119D
:1023700003C020952E2301C02E2B2C938FBF0895D0
:10238000CF93DF9390E0FC01E057FF4F2491FC01D5
:10239000E458FF4F8491882361F190E0880F991FE2
:1023A000FC01E859FF4FC591D491FC01EE58FF4F55
:1023B000A591B491611109C09FB7F89488812095C7
:1023C00082238883EC912E230BC0623061F49FB787
:1023D000F8943881822F809583238883EC912E2B6B
:1023E0002C939FBF06C08FB7F894E8812E2B2883CB
:1023F0008FBFDF91CF9108953FB7F89480910A0184
:1024000090910B01A0910C01B0910D0126B5A89BF4
:1024100005C02F3F19F00196A11DB11D3FBFBA2F76
:10242000A92F982F8827820F911DA11DB11DBC01D6
:10243000CD0142E0660F771F881F991F4A95D1F79B
:1024400008958F929F92AF92BF92CF92DF92EF92B8
:10245000FF926B017C010E94FC114B015C01C114D5
:10246000D104E104F104F1F00E94FC11DC01CB0184
:1024700088199909AA09BB09883E9340A105B105AD
:1024800070F321E0C21AD108E108F10888EE880E45
:1024900083E0981EA11CB11CC114D104E104F10415
:1024A00019F7DDCFFF90EF90DF90CF90BF90AF9006
:1024B0009F908F9008950F931F93CF93DF93C7E062
:1024C000D0E0082F10E0B8010C2E02C0759567957A
:1024D0000A94E2F76170772783E00E94741161E04B
:1024E00084E00E94741160E084E00E9474112197DE
:1024F00050F7DF91CF911F910F9108951F920F9286
:102500000FB60F9211242F933F938F939F93AF9306
:10251000BF938091060190910701A0910801B091AD
:1025200009013091050123E0230F2D3720F4019696
:10253000A11DB11D05C026E8230F0296A11DB11DE6
:10254000209305018093060190930701A093080151
:10255000B093090180910A0190910B01A0910C01A7
:10256000B0910D010196A11DB11D80930A019093B8
:102570000B01A0930C01B0930D01BF91AF919F91FE
:102580008F913F912F910F900FBE0F901F90189534
:102590001F920F920FB60F9211248F93809110010A
:1025A0008F5F80931001809110018F3029F4109279
:1025B00010018FEF809329018F910F900FBE0F9024
:1025C0001F9018951F920F920FB60F9211248F93A0
:1025D000EF93FF9380914102882389F0E0910401F9
:1025E00081E08E0F80930401F0E0E65DFE4F808174
:1025F0008093B30080914102815080934102FF910A
:10260000EF918F910F900FBE0F901F9018957894B7
:1026100084B5826084BD84B5816084BD85B58260E7
:1026200085BD85B5816085BD80916E008160809398
:102630006E00109281008091810082608093810001
:102640008091810081608093810080918000816011
:10265000809380008091B10084608093B10080916C
:10266000B00081608093B00080917A008460809394
:102670007A0080917A00826080937A0080917A005B
:10268000816080937A0080917A00806880937A00DC
:102690001092C1008FEF8093660062E089E00E9493
:1026A000C01162E08AE00E94C01162E08CE00E94EA
:1026B000C01162E088E00E94C01161E082E10E94E6
:1026C000C01161E083E10E94C01161E085E00E94D9
:1026D000C01161E086E00E94C01161E083E00E94C9
:1026E000C01161E084E00E94C01112E001E0C0E08E
:1026F000D0E0802F0C2E01C0880F0A94EAF70E94C8
:102700005B1262E370E080E090E00E94211221966B
:10271000C830D10571F7C7E0D0E0802F0C2E01C082
:10272000880F0A94EAF70E945B1262E370E080E08F
:1027300090E00E942112219780F7113011F011E0F2
:10274000D6CF5E9A64E670E080E090E00E942112AD
:102750005D9A64E670E080E090E00E942112449A65
:1027600064E670E080E090E00E942112459A64EFF8
:1027700071E080E090E00E94211260E085E00E941C
:10278000741164E670E080E090E00E94211260E045
:1027900086E00E94741164E670E080E090E00E94A0
:1027A000211260E082E10E94741164E670E080E032
:1027B00090E00E94211260E083E10E94741164E6BF
:1027C00070E080E090E00E94211280E00E945B12A5
:1027D00061E08BE00E94C011F89480918100877EB7
:1027E000886080938100809180008C7F809380003E
:1027F00080918100887F81608093810080916F004B
:10280000826080936F0080E991E0909389008093CB
:1028100088008091B6008F798093B6008091B000D7
:1028200083608093B0008091B100877F8093B10076
:102830008091B0008F7380688093B0008091B00069
:102840008F7C8093B0008091B100887F81608093FD
:10285000B10080E88093B30014BC15BC16BC8FEFA8
:1028600087BD84B5826084BD85B5856085BD809156
:102870006E00826080936E0080917A00887F8093E2
:102880007A0080917A00876080937A0080E4809358
:102890007C0080917A00806480937A007894C1E013
:1028A000D0E060E0662E60E0762E88248A94912C39
:1028B0000CE01AE0E2EEEE2EFF24F394FAE9CF2EBC
:1028C000FDE0DF2EAAE6AA2EA8E0BA2E80914102F2
:1028D0008F3F09F41AC11092400210923F022091DA
:1028E0003D0230913E022115310559F190910301CD
:1028F00080913C02890F87FD03C080933C0212C087
:102900008F7780933C0280913A0290913B0201962E
:1029100090933B0280933A022150310930933E025A
:1029200020933D02E0913A02F0913B02E05CF54ECB
:10293000E491F0E0E058F109F0934002E0933F02A7
:1029400001C05E982091380230913902211531057D
:1029500089F19091020180913702890F87FD03C0B0
:102960008093370212C08F778093370280913502AF
:102970009091360201969093360280933502215051
:1029800031093093390220933802E0913502F091F9
:102990003602EA55F34FE491F0E0E058F1098091F6
:1029A0003F0290914002E80FF91FF0934002E0933C
:1029B0003F0201C05D98209133023091340221150D
:1029C000310589F19091010180913202890F87FDD3
:1029D00003C08093320212C08F77809332028091BD
:1029E000300290913102019690933102809330022F
:1029F000215031093093340220933302E0913002A8
:102A0000F0913102EC53F54FE491F0E0E058F10918
:102A100080913F0290914002E80FF91FF09340022D
:102A2000E0933F0201C0449820912E0230912F0282
:102A30002115310589F19091000180912D02890FB6
:102A400087FD03C080932D0212C08F7780932D02E3
:102A500080912B0290912C02019690932C028093EE
:102A60002B022150310930932F0220932E02E09146
:102A70002B02F0912C02E854FF4FE491F0E0E05873
:102A8000F10980913F0290914002E80FF91FF09305
:102A90004002E0933F0201C0459880913F0290912F
:102AA0004002959587959093400280933F021A9932
:102AB00006C0959587959093400280933F02809140
:102AC0003F029091400280589F4F8F3F910509F03F
:102AD0002CF49093400280933F0204C090924002F5
:102AE00080923F02F89480912A02E82FF0E0E65DA0
:102AF000FE4F90913F0290838F5F80932A028091D6
:102B000041028F5F8093410278948091290188234C
:102B100009F4B2C0809128018F5F80932801109240
:102B20002901803111F410922801809128011E01A1
:102B3000082E02C0220C331C0A94E2F7032C000C6E
:102B40004408550820922401309225014092260124
:102B50005092270180FD14C0809123018F5F88303F
:102B600018F48093230102C010922301CE0100903B
:102B7000230102C0880F991F0A94E2F70E945B129A
:102B800080911F0190912001A0912101B09122011B
:102B900082219321A421B521892B8A2B8B2B49F0EB
:102BA00010923B0210923A02B0923E02A0923D0275
:102BB0005E9A409124015091250160912601709107
:102BC000270180911B0190911C01A0911D01B091E2
:102BD0001E0184239523A623B723892B8A2B8B2BB5
:102BE00049F01092360210923502D0923902C0920A
:102BF00038025D9A4091240150912501609126018F
:102C0000709127018091170190911801A0911901ED
:102C1000B0911A0184239523A623B723892B8A2BED
:102C20008B2B49F01092310210923002F092340254
:102C3000E0923302449A4091240150912501609121
:102C40002601709127018091130190911401A091A8
:102C50001501B091160184239523A623B723892B50
:102C60008A2B8B2B49F010922C0210922B0210937E
:102C70002F0200932E02459A83B1982F977190935B
:102C800012019091110191FF2FC081FD2DC0209163
:102C9000100140911F01509120016091210170911C
:102CA00022018091240190912501A0912601B091EB
:102CB0002701283020F0880F991FAA1FBB1F842BE3
:102CC000952BA62BB72B80931F0190932001A093E7
:102CD0002101B093220110923B0210923A02B0926D
:102CE0003E02A0923D025E9A8091110182FF31C0A6
:102CF0008091120182FD2DC020911001809124014C
:102D000090912501A0912601B091270140911B01CE
:102D100050911C0160911D0170911E01283020F01E
:102D2000880F991FAA1FBB1F842B952BA62BB72B8F
:102D300080931B0190931C01A0931D01B0931E0171
:102D40001092360210923502D0923902C0923802A7
:102D50005D9A8091110184FF31C08091120184FD40
:102D60002DC0209110018091240190912501A09106
:102D70002601B091270140911701509118016091EF
:102D8000190170911A01283020F0880F991FAA1F8D
:102D9000BB1F842B952BA62BB72B809317019093E9
:102DA0001801A0931901B0931A01109231021092E8
:102DB0003002F0923402E0923302449A8091110181
:102DC00080FF31C08091120180FD2DC02091100143
:102DD0008091240190912501A0912601B0912701B5
:102DE00040911301509114016091150170911601E9
:102DF000283020F0880F991FAA1FBB1F842B952B0A
:102E0000A62BB72B8093130190931401A093150167
:102E1000B093160110922C0210922B0210932F02E5
:102E200000932E02459A80911201809311018091A6
:102E30000F0191E0980F90930F0181113AC080919A
:102E40007A0086FD36C0209178008091790090E06C
:102E5000982F8827820F911D43E0959587954A9575
:102E6000E1F7019620910E01211103C0809300012A
:102E70000EC0213019F48093010109C0223019F4E9
:102E80008093020104C0233011F4809303012F5F6B
:102E9000253019F020930E0102C010920E0180918E
:102EA0000E01806480937C0080917A00806480931E
:102EB0007A006114710409F409CD0E94000006CD66
:042EC000F894FFCFB4
:042EC40040404080CA
:00000001FF
